:020000040800F2
:1000000000500020212200087D21000885210008E1
:100010008D210008952100089D21000800000000A6
:1000200000000000000000000000000051830008F4
:10003000A52100080000000031850008B12100085A
:100040006922000869220008692200086922000864
:1000500069220008CB2100086922000869220008F3
:10006000692200086922000869220008D9210008D5
:100070006922000869220008692200086922000834
:100080006922000869220008692200086922000824
:100090006922000869220008692200086922000814
:1000A0006922000869220008692200086922000804
:1000B000ED21000869220008692200086922000871
:1000C00069220008692200086922000869220008E4
:1000D000692200086922000801220008692200083C
:1000E0006922000869220008692200080000000057
:1000F0000000000000000000000000000000000000
:0C01000000000000000000005FF808F1A3
:1001100010B5054C237833B9044B13B10448AFF341
:1001200000800123237010BD640000200000000047
:100130000094000808B5034B1BB103490348AFF313
:10014000008008BD00000000680000200094000846
:1001500080F0004002E000BF81F0004142001FBF7C
:100160005FEA410392EA030F7FEA226C7FEA236C85
:100170006AD04FEA1262D2EB1363C1BFD21841407A
:1001800048404140B8BF5B42192B88BF704710F010
:10019000004F40F4000020F07F4018BF404211F0B3
:1001A000004F41F4000121F07F4118BF494292EA1B
:1001B000030F3FD0A2F1010241FA03FC10EB0C0047
:1001C000C3F1200301FA03F100F0004302D54942D4
:1001D00060EB4000B0F5000F13D3B0F1807F06D381
:1001E00040084FEA310102F10102FE2A51D2B1F179
:1001F000004F40EBC25008BF20F0010040EA03006E
:100200007047490040EB0000013A28BFB0F5000FED
:10021000EDD2B0FA80FCACF1080CB2EB0C0200FAA3
:100220000CF0AABF00EBC25052421843BCBFD040F2
:100230001843704792F0000F81F4000106BF80F46C
:1002400000000132013BB5E74FEA41037FEA226C2F
:1002500018BF7FEA236C21D092EA030F04D092F0FA
:10026000000F08BF0846704790EA010F1CBF00202E
:10027000704712F07F4F04D1400028BF40F000408B
:10028000704712F100723CBF00F50000704700F0AB
:10029000004343F0FE4040F4000070477FEA2262D2
:1002A00016BF08467FEA23630146420206BF5FEAA3
:1002B000412390EA010F40F4800070474FF00003A3
:1002C00004E000BF10F0004348BF40425FEA000C6A
:1002D00008BF704743F0964301464FF000001CE012
:1002E00050EA010208BF70474FF000030AE000BF68
:1002F00050EA010208BF704711F0004302D54042A6
:1003000061EB41015FEA010C02BF84460146002017
:1003100043F0B64308BFA3F18053A3F50003BCFA32
:100320008CF2083AA3EBC25310DB01FA02FC6344DF
:1003300000FA02FCC2F12002BCF1004F20FA02F2E6
:1003400043EB020008BF20F00100704702F12002D9
:1003500001FA02FCC2F1200250EA4C0021FA02F23A
:1003600043EB020008BF20EADC7070474FF0FF0C3F
:100370001CEAD0521EBF1CEAD15392EA0C0F93EA3A
:100380000C0F6FD01A4480EA010C400218BF5FEADC
:1003900041211ED04FF0006343EA501043EA51114F
:1003A000A0FB01310CF00040B1F5000F3EBF490049
:1003B00041EAD3715B0040EA010062F17F02FD2A4D
:1003C0001DD8B3F1004F40EBC25008BF20F0010030
:1003D000704790F0000F0CF0004C08BF49024CEA47
:1003E000502040EA51207F3AC2BFD2F1FF0340EAD9
:1003F000C250704740F400004FF00003013A5DDC4A
:1004000012F1190FDCBF00F000407047C2F100028A
:10041000410021FA02F1C2F1200200FA02FC5FEA77
:10042000310040F1000053EA4C0308BF20EADC70C1
:10043000704792F0000F00F0004C02BF400010F433
:10044000000F013AF9D040EA0C0093F0000F01F0E0
:10045000004C02BF490011F4000F013BF9D041EA02
:100460000C018FE70CEAD15392EA0C0F18BF93EA04
:100470000C0F0AD030F0004C18BF31F0004CD8D12E
:1004800080EA010000F00040704790F0000F17BFB5
:1004900090F0004F084691F0000F91F0004F14D0FB
:1004A00092EA0C0F01D142020FD193EA0C0F03D153
:1004B0004B0218BF084608D180EA010000F0004056
:1004C00040F0FE4040F40000704740F0FE4040F431
:1004D000400070474FF0FF0C1CEAD0521EBF1CEAD0
:1004E000D15392EA0C0F93EA0C0F69D0A2EB0302EE
:1004F00080EA010C49024FEA402037D04FF0805388
:1005000043EA111143EA10130CF000408B4238BF4C
:100510005B0042F17D024FF4000C8B4224BF5B1A5A
:1005200040EA0C00B3EB510F24BFA3EB510340EAA8
:100530005C00B3EB910F24BFA3EB910340EA9C0056
:10054000B3EBD10F24BFA3EBD10340EADC001B01C6
:1005500018BF5FEA1C1CE0D1FD2A3FF650AF8B426A
:1005600040EBC25008BF20F0010070470CF0004C77
:100570004CEA50207F32C2BFD2F1FF0340EAC250A2
:10058000704740F400004FF00003013A37E792F063
:10059000000F00F0004C02BF400010F4000F013AC1
:1005A000F9D040EA0C0093F0000F01F0004C02BFBC
:1005B000490011F4000F013BF9D041EA0C0195E725
:1005C0000CEAD15392EA0C0F08D142027FF47DAFBE
:1005D00093EA0C0F7FF470AF084676E793EA0C0FAE
:1005E00004D14B023FF44CAF08466EE730F0004CAC
:1005F00018BF31F0004CCAD130F000427FF45CAF3C
:1006000031F000437FF43CAF5FE700BF4FF0FF3CA9
:1006100006E000BF4FF0010C02E000BF4FF0010CFC
:100620004DF804CD4FEA40024FEA41037FEA226CC5
:1006300018BF7FEA236C11D001B052EA530C18BFE7
:1006400090EA010F58BFB2EB030088BFC81738BF4C
:100650006FEAE17018BF40F0010070477FEA226C3A
:1006600002D15FEA402C05D17FEA236CE4D15FEA36
:10067000412CE1D05DF8040B704700BF844608466A
:100680006146FFE70FB5FFF7C9FF002848BF10F12B
:10069000000F0FBD4DF808EDFFF7F4FF0CBF012070
:1006A00000205DF808FB00BF4DF808EDFFF7EAFFFA
:1006B00034BF012000205DF808FB00BF4DF808EDB5
:1006C000FFF7E0FF94BF012000205DF808FB00BFAA
:1006D0004DF808EDFFF7D2FF94BF012000205DF830
:1006E00008FB00BF4DF808EDFFF7C8FF34BF01203D
:1006F00000205DF808FB00BF4FEA40024FEA4103CB
:100700007FEA226C02D15FEA402C08D17FEA236C99
:1007100002D15FEA412C02D14FF0000070474FF048
:100720000100704742000ED2B2F1FE4F0BD34FF0E2
:100730009E03B3EB126209D44FEA002343F0004357
:1007400023FA02F070474FF00000704712F1610F7A
:1007500001D1420202D14FF0FF3070474FF000004C
:10076000704700BF80B582B000AF042247494848B7
:1007700001F0B6FE474B00225A70464B002283F828
:100780003D20444B002283F87920424B002283F81D
:10079000B5200023FB7120E0FA793E4913461B0186
:1007A0009B1A9B000B4428333B4A1A60FA7939495B
:1007B00013461B019B1A9B000B442433374A1A60D3
:1007C000FA79344913461B019B1A9B000B443833BA
:1007D00000221A60FB790133FB71FB79032BDBD913
:1007E0002F4B00229A702E4B002283F822202C4B94
:1007F000002283F842202A4B002283F86220284BF3
:1008000000225A70264B002283F82120244B00221C
:1008100083F84120224B002283F861200023BB7122
:100820002CE0BB791E4A5B011344183300221A6086
:10083000BB791B4A5B011344143300221A60BB7955
:10084000174A5B0113440C3300221A60BB79144A27
:100850005B011344033300221A70BB79104A5B0119
:100860001344043300221A70BB790D4A5B01134410
:10087000083332221A80BB790133BB71BB79032B59
:10088000CFD9002318460837BD4680BD0C02002092
:10089000A00500209C00002000202E450000E6421C
:1008A0008C01002080B582B000AF0023FB7100F006
:1008B00079FA00F03DFB0023BB7147E0BA79694942
:1008C00013461B019B1A9B000B4401331B78002B22
:1008D00039D0BA79634913461B019B1A9B000B441C
:1008E0002C331B78022B05D10223FB715E4B0222B5
:1008F0001A702EE0BA795B4913461B019B1A9B00C4
:100900000B442C331B78012B09D1574B1B78022B3E
:1009100005D00123FB71544B01221A7013E0BA7900
:10092000504913461B019B1A9B000B442C331B7828
:10093000042B08D14C4B1B78012B04D80423FB71EA
:10094000494B04221A70BB790133BB71BB79032B6D
:10095000B4D900237B713BE07B79444A5B011344AB
:1009600001331B78002B30D07B79404A5B01134464
:1009700010331B78022B05D10223FB713A4B022264
:100980001A7028E07B79394A5B01134410331B78D5
:10099000012B09D1344B1B78022B05D00123FB71AD
:1009A000314B01221A7010E07B79304A5B0113440D
:1009B00010331B78042B08D12B4B1B78012B04D848
:1009C0000423FB71284B04221A707B7901337B715D
:1009D0007B79032BC0D9FB79012B05D1224BDB6836
:1009E0000133214AD36010E0FB79022B05D11E4B65
:1009F0001B6901331C4A136107E0FB79032B04D107
:100A0000194B5B690133184A5361FB79022B0ED1F4
:100A100001222021164802F09AFE01224FF4806143
:100A2000134802F094FE134B01221A8111E0FB7966
:100A3000002B0ED10F4B1B89002B0AD10022202145
:100A40000B4802F084FE00224FF48061084802F057
:100A50007EFE054AFB791370FB7918460837BD46C0
:100A600080BD00BF9C000020800000208C01002081
:100A7000000C01402403002090B583B000AF002398
:100A8000FB7130E0FB791A33304A32F81330FA79CF
:100A9000D8B22F4913461B019B1A9B000B4401330C
:100AA00002461A70294B1B8DFC791846FFF706FC8D
:100AB0000246274923461B011B1B9B000B4428337E
:100AC0001A60224B5B8DFC791846FFF7F7FB024654
:100AD0001F4923461B011B1B9B000B4424331A6038
:100AE000FB790133FB71FB79032BCBD90023BB715D
:100AF00023E0BB792633154A32F81320BB79D1B2F3
:100B0000144A5B01134401330A461A70BB792A3335
:100B10000E4A32F81320BB79D1B20E4A5B0113445E
:100B200005330A461A70BB790A4A5B01134408333D
:100B300032221A80BB790133BB71BB79032BD8D920
:100B4000002318460C37BD4690BD00BF240300208B
:100B50009C0000208C01002090B583B000AF0023E2
:100B6000FB7125E0FA792C4913461B019B1A9B0067
:100B70000B4408331A68FB7903F110041046FFF7A1
:100B8000D1FD03469AB2254B23F81420FA79224965
:100B900013461B019B1A9B000B4401331A78FB7907
:100BA0001A3311461D4A22F81310FB790133FB71E9
:100BB000FB79032BD6D90023BB711AE0BB79184A05
:100BC0005B01134406331A78BB7922331146134A6A
:100BD00022F81310BB79124A5B01134401331A78CF
:100BE000BB79263311460D4A22F81310BB79013325
:100BF000BB71BB79032BE1D90A4B1B781A46074B13
:100C00001A80094B1B781A46044BA3F802220023D2
:100C100018460C37BD4690BD9C00002024030020E0
:100C20008C010020800000200000002080B582B0F0
:100C300000AF0346FB71FB79032B41D801A252F8A8
:100C400023F000BF550C00086D0C0008890C00084B
:100C5000A50C00084FF480511C4802F061FD0346CA
:100C60001A461B4B9A701A4B9B782AE04FF400519E
:100C7000164802F055FD03461A46154B83F822200C
:100C8000134B93F822301CE04FF480410F4802F0E0
:100C900047FD03461A460E4B83F842200C4B93F84F
:100CA00042300EE04FF40041084802F039FD03469F
:100CB0001A46074B83F86220054B93F8623000E038
:100CC000002318460837BD4680BD00BF000C014018
:100CD0008C01002090B585B000AF0346FB71FB7915
:100CE000294A32F813301846FFF7ECFA0346274931
:100CF0001846FFF73BFB034625491846FFF7EAFB7A
:100D00000346FB602349F868FFF7CEFC0346002B3F
:100D100002D04FF0000332E0FA791F4913461B015D
:100D20009B1A9B000B4428331B681C491846FFF78D
:100D3000D1FB03461C46FA79174913461B019B1A3F
:100D40009B000B4424331B6815491846FFF7C2FB70
:100D500003461946F86807F0BFFE034619462046C9
:100D6000FFF704FB0346BB60FA790B4913461B01EE
:100D70009B1A9B000B440833BA681A60BB6818467C
:100D80001437BD4690BD00BF0C02002033335340E2
:100D900000F07F45CDCCCC3D9C0000200000C84237
:100DA0000000C8C280B582B000AF0023BB71002331
:100DB000FB71B0E0FA795C4913461B019B1A9B005A
:100DC0000B4401331B78002B00F0A280FB791846FE
:100DD000FFF780FF03461846FFF7A4FC0346BB80DD
:100DE000BB88002B14D1FA794F4913461B019B1A7B
:100DF0009B000B442C3304221A70FA794A4913469B
:100E00001B019B1A9B000B442D3301221A707FE0BB
:100E1000464BB3F88830BA889A4214D8FA794249D6
:100E200013461B019B1A9B000B442C3302221A70A1
:100E3000FA793D4913461B019B1A9B000B442D3345
:100E400008221A7064E0394BB3F88A30BA889A42A3
:100E500014D8FA79344913461B019B1A9B000B44A2
:100E60002C3301221A70FA792F4913461B019B1A61
:100E70009B000B442D3304221A7049E02B4BB3F82E
:100E80008C30BA889A4214D8FA79274913461B0144
:100E90009B1A9B000B442C3301221A70FA792249C9
:100EA00013461B019B1A9B000B442D3302221A7020
:100EB0002EE01E4BB3F88E30BA889A4214D8FA79D5
:100EC000194913461B019B1A9B000B442C3300222B
:100ED0001A70FA79144913461B019B1A9B000B44A4
:100EE0002D3301221A7013E0FA790F4913461B01C2
:100EF0009B1A9B000B442C3300221A70FA790A4982
:100F000013461B019B1A9B000B442D3300221A70C1
:100F1000FB790133FB71FB79032B7FF64BAFBB7978
:100F200018460837BD4680BD9C00002024030020E1
:100F300090B583B000AF0023BB710023FB7150E07C
:100F4000FB792C4A5B01134401331B78002B45D0FD
:100F5000FC79FB791846FFF769FE03461946254AD6
:100F60006301134402330A461A70FB79214A5B017C
:100F7000134402331A78FB791E495B010B44053395
:100F80001B789A4215D1FB791A4A5B01134410333E
:100F900002221A70FB79174A5B01134406330122BF
:100FA0001A70FB79134A5B0113441C3308221A7030
:100FB00014E0FB790F4A5B011344103300221A70CE
:100FC000FB790C4A5B011344063300221A70FB794B
:100FD000084A5B0113441C3300221A70FB79013369
:100FE000FB71FB79032BABD9BB7918460C37BD4697
:100FF00090BD00BF8C01002080B584B000AF002000
:1010000004F0D5FC03465A4A13605A4B0522A3F854
:101010000022584B0522A3F80222564B0022A3F8C7
:101020000422544B0122A3F80622524B0622A3F8B5
:101030000822504B0122A3F80A224E4B0122A3F8AA
:101040000C224C4B0022A3F80E224A4B0022A3F89C
:101050001022484B0022A3F81222464B00229A8607
:10106000444B0022DA86434B00221A87414B002270
:101070005A87404B40F6E2221A853E4B73225A852E
:101080003C4B0022A3F84C203A4B0022A3F84E2000
:10109000384B0022A3F85020364B0022A3F85220F0
:1010A000344B0022A3F88020324B0022A3F8822088
:1010B000304B0022A3F884202E4B0022A3F8862078
:1010C0002C4B4FF4FA72A3F888202A4B4FF47A7213
:1010D000A3F88A20274B40F2DC52A3F88C20254B42
:1010E0004FF4FA62A3F88E20224B6422A3F89020DA
:1010F000204B3222A3F892201E4B0022A3F894200A
:101100001C4B0122A3F896200023FB6007E01A4A3B
:10111000FB68002122F81310FB680133FB60FB68B9
:10112000042BF4DD0023BB6007E0144ABB681344C2
:1011300000221A70BB680133BB60BB68072BF4DD6B
:1011400000237B6007E00E4A7B68134400221A707C
:101150007B6801337B607B68032BF4DD0122094946
:10116000094803F088FC00BF1037BD4680BD00BFB2
:1011700014020020240300207C05002088050020A4
:1011800090050020200300205C06002080B487B07A
:1011900000AF786039604FF6FF73FB8200233B613C
:1011A00026E03B697A6813441B781A46FB8A534051
:1011B000FB820823FB6015E0FB8A03F00103002B90
:1011C0000AD0FB8A5B08FB82FB8A83F4BF4383F06F
:1011D0007E03DB43FB8202E0FB8A5B08FB82FB6849
:1011E000013BFB60FB68002BE6D13B6901333B61AF
:1011F0003A693B689A42D4DBFB8A18461C37BD46E5
:1012000080BC704780B584B000AF78607B681B6895
:101210002D4A934253D101F081F803462B4A1360C3
:101220002B4B1B78FF2B3FD0294B1B785A1CD1B27C
:10123000274A11701A46274B1978274B9954244B8B
:101240001B78022B36D9244B5B78BB730023FB73CE
:10125000BB7B102B0BD0102B12DC042B02DC032BDE
:1012600002DA0DE0062B0BD10823FB7310E0184BBC
:101270001B78062B0BD9184B9B790933FB7306E0BF
:10128000134B00221A70154B00221A7000E000BFA9
:10129000FB7B002B0ED00E4B1B78FA7B9A4209D8B1
:1012A0000E4B01221A7005E0094B00221A700B4BFD
:1012B00000221A7001220749094803F0DCFB00BF35
:1012C0001037BD4680BD00BF004400401C03002015
:1012D000180300202003002018020020190300201A
:1012E0005C06002080B582B000AF78607B681B6828
:1012F0000A4A93420DD10A4B00221A70094B002270
:101300001A70094803F0DCFB01220849064803F083
:10131000B2FB00BF0837BD4680BD00BF004400409F
:1013200018030020190300205C0600202003002081
:1013300080B500AF074803F0C3FB074B00221A70CB
:10134000064B00221A7001220549024803F093FB64
:1013500000BF80BD5C060020180300201903002098
:101360002003002080B5CAB000AFAA4B1B78052B24
:1013700040F2BB82A84B1B78052B06D0A54B002260
:101380001A70A64B00221A70B0E2A24B1B78023BE7
:101390001946A148FFF7FAFE0346A7F816319D4B00
:1013A0001B78023B9C4AD35C1A46B7F81631DBB275
:1013B0009A420BD1974B1B78013B974AD35C1A4654
:1013C000B7F816311B0A9BB29A420BD0914B002200
:1013D0001A70924B00221A70914B1B680133904A8D
:1013E000136083E28C4B5B7887F81531002387F814
:1013F000273107F59473A3F5947305221A7007F546
:101400009473A3F5947397F815215A7097F81531D2
:10141000032B7DD1804B9B781BB21B021AB27E4BF3
:10142000DB781BB213431BB2A7F804317A4B1B794C
:101430001BB21B021AB2784B5B791BB213431BB26F
:10144000A7F80231B7F80421B7F802311344B3F515
:10145000967F46DCB7F80231DBB25B00DAB207F503
:101460009473A3F594739A70032387F827310023AC
:10147000C7F820312EE0B7F80421D7F82031134403
:10148000684A32F813301B0A99B297F827315A1C70
:1014900087F827211A46C9B207F59473A3F5947308
:1014A0009954B7F80421D7F8203113445D4A32F833
:1014B000131097F827315A1C87F827211A46C9B20A
:1014C00007F59473A3F594739954D7F82031013339
:1014D000C7F82031B7F80231D7F820219A42CADB89
:1014E000B8E107F59473A3F594735B7863F07F0319
:1014F000DAB207F59473A3F594735A7007F59473F1
:10150000A3F5947302229A70032387F82731A1E18F
:1015100097F81531042B40F089803F4B9B781BB224
:101520001B021AB23C4BDB781BB213431BB2A7F869
:101530000831394B1B791BB21B021AB2364B5B794F
:101540001BB213431BB2A7F80631B7F80821B7F84E
:1015500006311344052B46DCB7F80631DBB25B00DD
:10156000DAB207F59473A3F594739A70032387F89E
:1015700027310023C7F81C312EE0B7F80821D7F82F
:101580001C311344284A32F813301B0A99B297F8D9
:1015900027315A1C87F827211A46C9B207F59473D8
:1015A000A3F594739954B7F80821D7F81C31134464
:1015B0001D4A32F8131097F827315A1C87F8272153
:1015C0001A46C9B207F59473A3F594739954D7F8E2
:1015D0001C310133C7F81C31B7F80631D7F81C218C
:1015E0009A42CADB36E107F59473A3F594735B78EE
:1015F00063F07F03DAB207F59473A3F594735A701E
:1016000007F59473A3F5947302229A70032387F865
:1016100027311FE1180300201802002019030020C1
:1016200098050020240300207C05002097F8153140
:10163000062B68D1AF4B9B781BB21B021AB2AD4B85
:10164000DB781BB213431BB2A7F80C31A94B1B79F3
:101650001BB21B021AB2A74B5B791BB213431BB21E
:10166000A7F80A31B7F80C31B3F5967F34D2B7F842
:101670000C31A149B7F80A2121F81320B7F80C3131
:1016800040F20912934207D1B7F80A31012B03D176
:10169000994B0022A3F81022964B9A7807F5947381
:1016A000A3F594739A70934BDA7807F59473A3F5C6
:1016B0009473DA708F4B1A7907F59473A3F59473CA
:1016C0001A718C4B5A7907F59473A3F594735A7178
:1016D000062387F82731BDE007F59473A3F59473CB
:1016E0005B7863F07F03DAB207F59473A3F5947324
:1016F0005A7007F59473A3F5947302229A7003232A
:1017000087F82731A6E097F81531102B40F08C8030
:10171000784B9B781BB21B021AB2764BDB781BB25C
:1017200013431BB2A7F81231724B1B791BB21B0279
:101730001AB2704B5B791BB213431BB2A7F810317E
:101740006C4B9B7987F80F31B7F81221B7F810313D
:101750001344B3F5967F50DC97F80F21B7F810319A
:101760005B009A4249D10023C7F818311FE0D7F82F
:1017700018315B0007335F4AD35C1BB21B021AB2FD
:10178000D7F8183104335B005A49CB5C1BB21343C2
:1017900019B2B7F81221D7F81831134489B2564A52
:1017A00022F81310D7F818310133C7F81831B7F8F9
:1017B0001031D7F818219A42D9DB4E4B9A7807F5A9
:1017C0009473A3F594739A704A4BDA7807F594737F
:1017D000A3F59473DA70474B1A7907F59473A3F560
:1017E00094731A71434B5A7907F59473A3F5947364
:1017F0005A71062387F827312CE007F59473A3F577
:1018000094735B7863F07F03DAB207F59473A3F502
:1018100094735A7007F59473A3F5947302229A7027
:10182000032387F8273115E007F59473A3F5947324
:101830005B7863F07F03DAB207F59473A3F59473D2
:101840005A7007F59473A3F5947301229A700323D9
:1018500087F8273197F827213B4611461846FFF7AE
:1018600095FC0346A7F8163197F827315A1C87F8DC
:1018700027211A46B7F81631D9B207F59473A3F5A4
:1018800094739954B7F816311B0A99B297F8273117
:101890005A1C87F827211A46C9B207F59473A3F595
:1018A00094739954154B1B68002B06D0134B1B687F
:1018B0004FF0FF31184604F000F997F827319AB23B
:1018C000394664230E4803F04BF80C4B1B68002B81
:1018D00004D00A4B1B68184604F03AF9094B002261
:1018E0001A70094B00221A7000E000BF07F59477C8
:1018F000BD4680BD180200202403002014020020F1
:101900005C060020180300201903002080B500AFFA
:10191000364B1B781A46364BB3F802329A4262D0E5
:10192000344B1B68002B06D0324B1B684FF0FF3145
:10193000184604F0C2F82E4BB3F80232013B042BD8
:1019400034D801A252F823F05D1900086D1900087F
:101950007D1900088D1900089D190008234B0122EC
:101960001A70254B4FF416525A6027E01F4B022283
:101970001A70214B4FF496425A601FE01B4B032212
:101980001A701D4B4FF416425A6017E0174B042291
:101990001A70194B4FF461425A600FE0134B052245
:1019A0001A70154B4FF4E1325A6007E00F4B0522D5
:1019B0001A70114B4FF4E1325A6000BF0E4802F02A
:1019C0009DFF0D4802F04AFF01220C490A4803F02E
:1019D00052F8084B1B68002B06D0064B1B681846B4
:1019E00004F0B6F800E000BF80BD00BF000000209A
:1019F00024030020140200205C06002020030020A5
:101A000080B582B000AF00F089FC78600D4B1B6898
:101A10007A68D31AB3F57A7F0FD30A4A7B681360CA
:101A2000094B1B687A68D31A47F23052934204D9A3
:101A3000FFF77EFC044A7B68136000BF0837BD4691
:101A400080BD00BF9C0500201C03002080B500AFB6
:101A500000F00CFC00F030F800F070F900F050F9E4
:101A600000F0D8F800F022F900F080F8FFF7C4FA8F
:101A7000FEF778FE03F0A6FE094A0021094803F0AC
:101A8000E9FE0346084A1360084A0021084803F0AB
:101A9000E1FE0346074A136003F0B6FE00BFFDE710
:101AA00048940008ED1D0008A40600206C9400086E
:101AB000111E0008A806002080B594B000AF07F101
:101AC000280328220021184606F0C6FF07F1140358
:101AD00000221A605A609A60DA601A613B1D002287
:101AE0001A605A609A60DA600123BB624FF4803357
:101AF000FB6200233B630123BB6302237B644FF43F
:101B00008033BB640023FB6407F12803184601F00F
:101B100037FE0346002B01D000F0D2F90F237B6182
:101B20000223BB610023FB614FF480633B6200230F
:101B30007B6207F114030021184602F0A3F8034664
:101B4000002B01D000F0BCF902237B600023FB6076
:101B50003B1D184602F024FA0346002B01D000F08A
:101B6000AFF900BF5037BD4680BD000080B584B0DE
:101B700000AF3B1D00221A605A609A60234B244A32
:101B80001A60224B00229A60204B01221A731F4BCD
:101B900000221A751D4B4FF46022DA611B4B0022A4
:101BA0005A601A4B01221A61184800F0C1FB034623
:101BB000002B01D000F084F90523FB6000237B603B
:101BC0000123BB603B1D1946104800F083FD012333
:101BD0007B600223BB603B1D19460C4800F07AFD78
:101BE00004237B600323BB603B1D1946074800F0BC
:101BF00071FD08237B600423BB603B1D194603482D
:101C000000F068FD00BF1037BD4680BDA005002074
:101C10000024014080B586B000AF07F10803002220
:101C20001A605A609A60DA603B4600221A605A6075
:101C30001D4B4FF080421A601B4B00225A601A4B1A
:101C400000229A60184B4FF6FF72DA60164B0022A2
:101C50001A61154B00229A61134802F057FA0346A5
:101C6000002B01D000F02CF94FF48053BB6007F13A
:101C7000080319460C4802F088FB0346002B01D0EC
:101C800000F01EF900233B6000237B603B461946B1
:101C9000054802F073FD0346002B01D000F010F957
:101CA00000BF1837BD4680BD1406002080B500AFC8
:101CB000114B124A1A60104B4FF4E1325A600E4B2E
:101CC00000229A600C4B0022DA600B4B00221A6152
:101CD000094B0C225A61084B00229A61064B0022E4
:101CE000DA61054802F0BAFD0346002B01D000F08E
:101CF000E7F800BF80BD00BF5C0600200044004044
:101D000080B582B000AF0C4B5B690B4A43F0010316
:101D10005361094B5B6903F001037B607B68002220
:101D200005210B2000F0CBFF0B2000F0E4FF00BFEB
:101D30000837BD4680BD00BF0010024080B588B0A6
:101D400000AF07F1100300221A605A609A60DA604F
:101D5000244B9B69234A43F020039361214B9B69E9
:101D600003F02003FB60FB681E4B9B691D4A43F098
:101D7000040393611B4B9B6903F00403BB60BB68C6
:101D8000184B9B69174A43F008039361154B9B69F5
:101D900003F008037B607B6800224FF44361124824
:101DA00001F0D5FC4FF443633B6101237B610023C9
:101DB000BB610223FB6107F1100319460A4801F0D9
:101DC0006FFA4FF470433B6100237B610023BB61DA
:101DD00007F110031946044801F062FA00BF2037EA
:101DE000BD4680BD00100240000C014080B582B0AD
:101DF00000AF7860FEF740FEFFF788FDFEF752FD6A
:101E0000FEF7AAFE012003F0B7FD00BFF2E70000D5
:101E100080B584B000AF7860224B5B6842F6F82250
:101E2000B2FBF3F3BB60BB689B00FB60FB68042B59
:101E300001D80523FB6000F071FA03461A4A1360CB
:101E4000194B1B68194A1360194B1B680133184A58
:101E50001360184B1B78002B01D0FFF783FA154B4A
:101E60001B78002B17D1144B1B78002B13D000F0DC
:101E700055FA02460C4B1B68D31AFA689A420AD2EA
:101E80000D4B00221A700B4B00221A700B4B1B6873
:101E900001330A4A1360FFF7B3FD012003F06CFD24
:101EA000D2E700BF5C0600201C0300209C05002038
:101EB0009405002019030020180300209805002035
:101EC00080B400AF72B600BF00BFFDE780B584B03C
:101ED00000AF1C4B9B691B4A43F001039361194BF4
:101EE0009B6903F00103BB60BB68164BDB69154AB5
:101EF00043F08053D361134BDB6903F080537B6065
:101F00007B6800220F216FF0010000F0D8FE002254
:101F10000521052000F0D3FE052000F0ECFE0A4B61
:101F20005B68FB60FB6823F0E063FB60FB6843F0E9
:101F30000073FB60044AFB68536000BF1037BD4666
:101F400080BD00BF001002400000014080B58AB093
:101F500000AF786007F1180300221A605A609A6097
:101F6000DA607B681B68344A934260D1334B9B69CB
:101F7000324A43F400739361304B9B6903F400735E
:101F80007B617B692D4B9B692C4A43F00403936171
:101F90002A4B9B6903F004033B613B69274B9B6918
:101FA000264A43F008039361244B9B6903F008031E
:101FB000FB60FB681323BB610323FB6107F118037C
:101FC00019461F4801F06CF90123BB610323FB6133
:101FD00007F1180319461B4801F062F91A4B1B4A16
:101FE0001A60194B00225A60174B00229A60164B58
:101FF0008022DA60144B4FF480721A61124B4FF456
:1020000080625A61104B20229A610F4B4FF40052AC
:10201000DA610D4800F098FE0346002B01D0FFF76F
:102020004FFF7B68084A1A62074A7B68536200BF09
:102030002837BD4680BD00BF00240140001002408B
:1020400000080140000C0140D005002008000240BB
:1020500080B584B000AF78607B681B68B3F1804FB7
:1020600013D10C4BDB690B4A43F00103D361094BDD
:10207000DB6903F00103FB60FB68002205211C20E3
:1020800000F01DFE1C2000F036FE00BF1037BD46DC
:1020900080BD00BF0010024080B588B000AF7860FE
:1020A00007F1100300221A605A609A60DA607B68B8
:1020B0001B681F4A934237D11E4BDB691D4A43F40C
:1020C0000033D3611B4BDB6903F40033FB60FB6817
:1020D000184B9B69174A43F004039361154B9B69A6
:1020E00003F00403BB60BB6804233B6102237B61F4
:1020F0000323FB6107F1100319460F4801F0D0F8E4
:1021000008233B6100237B610023BB6107F11003BF
:102110001946094801F0C4F800220521262000F0E4
:10212000CEFD262000F0E7FD00BF2037BD4680BD74
:1021300000440040001002400008014080B582B019
:1021400000AF78607B681B68094A93420CD1094B49
:10215000DB69084A23F40033D3610C21064801F0FF
:1021600023FA262000F0D5FD00BF0837BD4680BD0C
:1021700000440040001002400008014080B400AF5D
:1021800000BFFDE780B400AF00BFFDE780B400AF43
:1021900000BFFDE780B400AF00BFFDE780B400AF33
:1021A00000BFFDE780B400AF00BFBD4680BC7047F4
:1021B00080B500AF00F0A0F805F034FB0346012B1A
:1021C00001D006F0D9F900BF80BD80B400AF00BFD8
:1021D000BD4680BC7047000080B500AF024800F0EB
:1021E00021FF00BF80BD00BFD005002080B500AF3B
:1021F000024801F0DAFF00BF80BD00BF14060020D6
:1022000080B500AF024802F047FD00BF80BD00BFAF
:102210005C06002080B400AF00BFBD4680BC7047A4
:10222000FFF7F8FF0B480C490C4A002302E0D45892
:10223000C4500433C4188C42F9D3094A094C002312
:1022400001E013600432A242FBD306F013FCFFF757
:10225000FDFB70470000002064000020E4940008AB
:102260006400002038210020FEE7000080B500AFA8
:10227000084B1B68074A43F010031360032000F06B
:1022800013FD0F2000F008F8FFF720FE002318468A
:1022900080BD00BF0020024080B582B000AF7860F2
:1022A000124B1A68124B1B7819464FF47A73B3FB22
:1022B000F1F3B2FBF3F3184600F039FD0346002BAF
:1022C00001D001230EE07B680F2B0AD80022796829
:1022D0004FF0FF3000F0F3FC064A7B6813600023E8
:1022E00000E0012318460837BD4680BD04000020E9
:1022F0000C0000200800002080B400AF054B1B78C4
:102300001A46054B1B681344034A136000BFBD46C1
:1023100080BC70470C000020AC06002080B400AFE9
:10232000024B1B681846BD4680BC7047AC060020B7
:1023300080B586B000AF78600023FB7500233B6159
:102340000023BB600023FB607B68002B01D10123CD
:10235000BEE07B689B68002B7B689B6A002B09D1E1
:102360007B680022DA627B68002283F82420786888
:10237000FFF7ECFD786800F0FFFA0346FB757B6819
:102380009B6A03F01003002B40F09980FB7D002B2B
:1023900040F095807B689B6A23F4885323F0020306
:1023A00043F002027B689A627B685A687B68DB694B
:1023B0001A437B681B7B5B001343BA681343BB6003
:1023C0007B689B68B3F5807F03D07B689B68012B9B
:1023D00002D14FF4807300E000233A6913433B615C
:1023E0007B681B7D012B19D17B681B7B002B09D1DE
:1023F0007B689B69013B5A033B69134343F40063C9
:102400003B610BE07B689B6A43F020027B689A6229
:102410007B68DB6A43F001027B68DA627B681B68D9
:102420005B6823F469417B681B683A690A435A6018
:102430007B681B689A68284B13407A681268B968F1
:102440000B4393607B689B68B3F5807F03D07B6808
:102450009B68012B04D17B681B69013B1B05FB605A
:102460007B681B68DB6A23F470017B681B68FA6871
:102470000A43DA627B681B689A68184B1340BA6893
:102480009A420BD17B680022DA627B689B6A23F058
:10249000030343F001027B689A6218E07B689B6A41
:1024A00023F0120343F010027B689A627B68DB6AB8
:1024B00043F001027B68DA620123FB7507E07B6869
:1024C0009B6A43F010027B689A620123FB75FB7DD7
:1024D00018461837BD4680BDFDF7E1FFFE0E1FFF11
:1024E00080B586B000AFF860B9607A600023FB75F4
:1024F000FB681B68644A934204D0FB681B68634A0C
:10250000934206D1604B5B6803F47023002B40F0CC
:10251000B380FB6893F82430012B01D10223AEE095
:10252000FB68012283F82420F86800F0CBF9034609
:10253000FB75FB7D002B40F09A80FB689B6A23F4BF
:10254000706323F0010343F48072FB689A62FB68B6
:102550001B684E4A934205D14B4B5B6803F47023D2
:10256000002B15D1FB689B6A23F48012FB689A62EA
:10257000FB681B685B6803F48063002B26D0FB6854
:102580009B6A23F4405343F48052FB689A621DE037
:10259000FB689B6A43F48012FB689A62FB681B68C5
:1025A000394A934204D0FB681B68384A93420DD1E4
:1025B000354B5B6803F48063002B07D0FB689B6A94
:1025C00023F4405343F48052FB689A62FB689B6A91
:1025D00003F48053002B06D0FB68DB6A23F006026D
:1025E000FB68DA6202E0FB680022DA62FB68002224
:1025F00083F82420FB681B6A254A9A62FB681B6AE1
:10260000244ADA62FB681B6A234A1A63FB681B6868
:102610006FF002021A60FB681B689A68FB681B680F
:1026200042F480729A60FB68186AFB681B684C333E
:102630001946BA687B6800F0E1FBFB681B689B6881
:1026400003F46023B3F5602F08D1FB681B689A6818
:10265000FB681B6842F4A0029A600FE0FB681B68ED
:102660009A68FB681B6842F480129A6006E0FB6877
:10267000002283F8242001E00123FB75FB7D18462E
:102680001837BD4680BD00BF00240140002801402E
:10269000FB290008772A0008932A000880B483B039
:1026A00000AF786000BF0C37BD4680BC704780B477
:1026B00083B000AF786000BF0C37BD4680BC704768
:1026C00080B483B000AF786000BF0C37BD4680BCDB
:1026D0007047000080B485B000AF78603960002397
:1026E000FB730023BB607B6893F82430012B01D17E
:1026F0000223DCE07B68012283F824203B685B68CE
:10270000062B1CD87B681B68596B3B685A681346BC
:102710009B001344053B1F2202FA03F3DB431940DD
:102720003B6818683B685A6813469B001344053B96
:1027300000FA03F27B681B680A435A633CE03B687B
:102740005B680C2B1CD87B681B68196B3B685A684C
:1027500013469B001344233B1F2202FA03F3DB437F
:1027600019403B6818683B685A6813469B0013443D
:10277000233B00FA03F27B681B680A431A631BE0E1
:102780007B681B68D96A3B685A6813469B001344F0
:10279000413B1F2202FA03F3DB4319403B681868F0
:1027A0003B685A6813469B001344413B00FA03F20E
:1027B0007B681B680A43DA623B681B68092B1CD9DB
:1027C0007B681B68D9683B681A6813465B00134432
:1027D0001E3B072202FA03F3DB4319403B6898686B
:1027E0003B681A6813465B0013441E3B00FA03F271
:1027F0007B681B680A43DA6019E07B681B6819690B
:102800003B681A6813465B001344072202FA03F37D
:10281000DB4319403B6898683B681A6813465B00C5
:10282000134400FA03F27B681B680A431A613B6891
:102830001B68102B03D03B681B68112B32D17B68BF
:102840001B681D4A934225D17B681B689B6803F473
:102850000003002B26D17B681B689A687B681B6885
:1028600042F400029A603B681B68102B1AD1134B8C
:102870001B68134AA2FB03239A0C13469B001344C4
:102880005B00BB6002E0BB68013BBB60BB68002B28
:10289000F9D107E07B689B6A43F020027B689A626B
:1028A0000123FB737B68002283F82420FB7B1846FE
:1028B0001437BD4680BC704700240140040000204E
:1028C00083DE1B4380B584B000AF78600023FB60DB
:1028D0000023BB607B681B689B6803F00103012B2E
:1028E00040D07B681B689A687B681B6842F00102D5
:1028F0009A601F4B1B681F4AA2FB03239B0CBB6003
:1029000002E0BB68013BBB60BB68002BF9D1FFF75D
:1029100005FDF8601FE0FFF701FD0246FB68D31AD2
:10292000022B18D97B681B689B6803F00103012BFD
:1029300011D07B689B6A43F010027B689A627B68C7
:10294000DB6A43F001027B68DA627B68002283F86D
:102950002420012307E07B681B689B6803F00103C8
:10296000012BD8D1002318461037BD4680BD00BFCB
:102970000400002083DE1B4380B584B000AF786084
:102980000023FB607B681B689B6803F00103012B3D
:102990002ED17B681B689A687B681B6822F0010255
:1029A0009A60FFF7BBFCF8601BE0FFF7B7FC02463C
:1029B000FB68D31A022B14D97B681B689B6803F051
:1029C0000103012B0DD17B689B6A43F010027B68E9
:1029D0009A627B68DB6A43F001027B68DA6201235A
:1029E00007E07B681B689B6803F00103012BDCD0C8
:1029F000002318461037BD4680BD80B584B000AFB7
:102A000078607B685B6AFB60FB689B6A03F050033D
:102A1000002B27D1FB689B6A43F40072FB689A6223
:102A2000FB681B689B6803F46023B3F5602F15D126
:102A3000FB681B7B002B11D1FB689B6A23F480721F
:102A4000FB689A62FB689B6A03F48053002B05D1F4
:102A5000FB689B6A43F00102FB689A62F868FFF723
:102A60001DFE04E0FB681B6A1B6B7868984700BF7B
:102A70001037BD4680BD80B584B000AF78607B68FC
:102A80005B6AFB60F868FFF712FE00BF1037BD46B7
:102A900080BD80B584B000AF78607B685B6AFB6006
:102AA000FB689B6A43F04002FB689A62FB68DB6A42
:102AB00043F00402FB68DA62F868FFF701FE00BF2A
:102AC0001037BD4680BD000080B485B000AF78608F
:102AD0007B6803F00703FB600C4BDB68BB60BA68E4
:102AE0004FF6FF031340BB60FB681A02BB68134339
:102AF00043F0BF6343F40033BB60044ABB68D36058
:102B000000BF1437BD4680BC704700BF00ED00E039
:102B100080B400AF044BDB681B0A03F007031846C0
:102B2000BD4680BC704700BF00ED00E080B483B0BC
:102B300000AF0346FB7197F90730002B0BDBFB79E5
:102B400003F01F02064997F907305B09012000FADC
:102B500002F241F8232000BF0C37BD4680BC70470D
:102B600000E100E080B483B000AF0346FB7197F949
:102B70000730002B12DBFB7903F01F020A4997F99B
:102B800007305B09012000FA02F2203341F82320CC
:102B9000BFF34F8F00BFBFF36F8F00BF00BF0C3775
:102BA000BD4680BC704700BF00E100E080B483B048
:102BB00000AF03463960FB7197F90730002B0ADB41
:102BC0003B68DAB20C4997F907301201D2B20B44D4
:102BD00083F800230AE03B68DAB20849FB7903F086
:102BE0000F03043B1201D2B20B441A7600BF0C371C
:102BF000BD4680BC704700BF00E100E000ED00E092
:102C000080B489B000AFF860B9607A60FB6803F007
:102C10000703FB61FB69C3F10703042B28BF0423EF
:102C2000BB61FB690433062B02D9FB69033B00E05F
:102C300000237B614FF0FF32BB6902FA03F3DA43F2
:102C4000BB681A407B699A404FF0FF317B6901FAFB
:102C500003F3D9437B680B40134318462437BD4622
:102C600080BC704780B582B000AF78607B68013B64
:102C7000B3F1807F01D301230FE00A4A7B68013B57
:102C800053600F214FF0FF30FFF790FF054B0022FC
:102C90009A60044B07221A60002318460837BD4685
:102CA00080BD00BF10E000E080B582B000AF78606A
:102CB0007868FFF709FF00BF0837BD4680BD80B5C3
:102CC00086B000AF0346B9607A60FB7300237B6176
:102CD000FFF71EFF78617A68B9687869FFF790FF9F
:102CE000024697F90F3011461846FFF75FFF00BF05
:102CF0001837BD4680BD80B582B000AF0346FB717A
:102D000097F907301846FFF711FF00BF0837BD4697
:102D100080BD80B582B000AF0346FB7197F90730E4
:102D20001846FFF71FFF00BF0837BD4680BD80B5BE
:102D300082B000AF78607868FFF794FF03461846CA
:102D40000837BD4680BD000080B485B000AF786014
:102D50000023FB607B68002B01D1012343E07B68EB
:102D60001B681A46224B1344224AA2FB03231B0969
:102D70009A007B681A647B681F4ADA637B680222C8
:102D800083F821207B681B681B68FB60FB6823F4C9
:102D90007F5323F03003FB607B685A687B689B6835
:102DA0001A437B68DB681A437B681B691A437B689C
:102DB0005B691A437B689B691A437B68DB69134331
:102DC000FA681343FB607B681B68FA681A607B68CB
:102DD00000229A637B68012283F821207B6800220D
:102DE00083F82020002318461437BD4680BC704766
:102DF000F8FFFDBFCDCCCCCC0000024080B586B042
:102E000000AFF860B9607A603B600023FB75FB6837
:102E100093F82030012B01D102234BE0FB68012203
:102E200083F82020FB6893F82130DBB2012B3AD1E4
:102E3000FB68022283F82120FB6800229A63FB686A
:102E40001B681A68FB681B6822F001021A603B6865
:102E50007A68B968F86800F0F6F9FB68DB6A002B5D
:102E600008D0FB681B681A68FB681B6842F00E02FA
:102E70001A600FE0FB681B681A68FB681B6822F089
:102E800004021A60FB681B681A68FB681B6842F042
:102E90000A021A60FB681B681A68FB681B6842F02C
:102EA00001021A6005E0FB68002283F8202002235B
:102EB000FB75FB7D18461837BD4680BD80B485B0D4
:102EC00000AF78600023FB737B6893F82130DBB29E
:102ED000022B08D07B6804229A637B68002283F867
:102EE0002020012320E07B681B681A687B681B6830
:102EF00022F00E021A607B681B681A687B681B68E8
:102F000022F001021A607B681A6C7B68DB6B01217E
:102F100001FA02F25A607B68012283F821207B6863
:102F2000002283F82020FB7B18461437BD4680BC66
:102F30007047000080B584B000AF78600023FB7359
:102F40007B6893F82130DBB2022B05D07B6804222A
:102F50009A630123FB7351E07B681B681A687B68E6
:102F60001B6822F00E021A607B681B681A687B6877
:102F70001B6822F001021A607B681B68224A934298
:102F800029D07B681B68214A934222D07B681B684A
:102F90001F4A93421AD07B681B681E4A934212D084
:102FA0007B681B681C4A93420AD07B681B681B4ADB
:102FB000934202D14FF480130EE04FF080730BE088
:102FC0004FF4803308E04FF4805305E04FF48073F2
:102FD00002E0102300E00123114A53607B680122C4
:102FE00083F821207B68002283F820207B685B6BBC
:102FF000002B03D07B685B6B78689847FB7B184697
:103000001037BD4680BD00BF080002401C000240D2
:103010003000024044000240580002406C00024070
:103020000000024080B584B000AF78607B68DB6B45
:103030001B68FB607B681B681B68BB607B681B6C44
:1030400004229A40FB681340002B4FD0BB6803F06A
:103050000403002B4AD07B681B681B6803F0200325
:10306000002B07D17B681B681A687B681B6822F0FD
:1030700004021A607B681B68664A934229D07B6809
:103080001B68654A934222D07B681B68634A93425F
:103090001AD07B681B68624A934212D07B681B6817
:1030A000604A93420AD07B681B685F4A934202D110
:1030B0004FF480030EE04FF080630BE04FF4802369
:1030C00008E04FF4804305E04FF4806302E04023C2
:1030D00000E00423554A53607B68DB6A002B00F054
:1030E00094807B68DB6A786898478EE07B681B6C0D
:1030F00002229A40FB681340002B56D0BB6803F0B5
:103100000203002B51D07B681B681B6803F020036F
:10311000002B0BD17B681B681A687B681B6822F048
:103120000A021A607B68012283F821207B681B68F1
:10313000384A934229D07B681B68374A934222D091
:103140007B681B68354A93421AD07B681B68344AF7
:10315000934212D07B681B68324A93420AD07B6844
:103160001B68314A934202D14FF400130EE04FF036
:1031700000730BE04FF4003308E04FF4005305E018
:103180004FF4007302E0202300E00223274A53603B
:103190007B68002283F820207B689B6A002B34D058
:1031A0007B689B6A786898472FE07B681B6C0822D5
:1031B0009A40FB681340002B28D0BB6803F008033B
:1031C000002B23D07B681B681A687B681B6822F081
:1031D0000E021A607B681A6C7B68DB6B012101FAB6
:1031E00002F25A607B6801229A637B68012283F8AD
:1031F00021207B68002283F820207B681B6B002B3A
:1032000004D07B681B6B7868984700BF00BF1037FD
:10321000BD4680BD080002401C0002403000024054
:1032200044000240580002406C000240000002408E
:1032300080B483B000AF78607B689B6B18460C3716
:10324000BD4680BC704780B485B000AFF860B960FF
:103250007A603B60FB681A6CFB68DB6B012101FA4A
:1032600002F25A60FB681B683A685A60FB685B6848
:10327000102B08D1FB681B687A689A60FB681B6892
:10328000BA68DA6007E0FB681B68BA689A60FB6896
:103290001B687A68DA6000BF1437BD4680BC70478F
:1032A00080B48BB000AF7860396000237B6200236C
:1032B0003B6269E101227B6A02FA03F3FB613B682E
:1032C0001B68FA691340BB61BA69FB699A4240F016
:1032D00058813B685B689A4A93425ED0984A934211
:1032E00075D8984A934258D0964A93426FD8964AD6
:1032F000934252D0944A934269D8944A93424CD014
:10330000924A934263D8924A934246D0904A93425B
:103310005DD8122B2AD8122B59D801A252F823F0CB
:103320009B3300087533000887330008C933000851
:10333000CF330008CF330008CF330008CF33000865
:10334000CF330008CF330008CF330008CF33000855
:10335000CF330008CF330008CF330008CF33000845
:10336000CF3300087D33000891330008794A934237
:1033700013D02CE03B68DB683B6229E03B68DB68EC
:1033800004333B6224E03B68DB6808333B621FE0A8
:103390003B68DB680C333B621AE03B689B68002BA0
:1033A00002D104233B6213E03B689B68012B05D1EB
:1033B00008233B627B68FA691A6109E008233B62D3
:1033C0007B68FA695A6103E000233B6200E000BFBA
:1033D000BB69FF2B01D87B6801E07B6804337B610C
:1033E000BB69FF2B02D87B6A9B0002E07B6A083B2B
:1033F0009B003B617B691A680F213B6901FA03F36B
:10340000DB431A40396A3B6901FA03F31A437B69CB
:103410001A603B685B6803F08053002B00F0B180BA
:103420004D4B9B694C4A43F0010393614A4B9B69A6
:1034300003F00103BB60BB68484A7B6A9B08023308
:1034400052F82330FB607B6A03F003039B000F22DA
:1034500002FA03F3DB43FA681340FB607B68404ADF
:10346000934213D07B683F4A93420DD07B683E4A1B
:10347000934207D07B683D4A934201D1032306E083
:10348000042304E0022302E0012300E000237A6A1F
:1034900002F0030292009340FA681343FB602F4945
:1034A0007B6A9B080233FA6841F823203B685B681B
:1034B00003F48013002B06D02D4B9A682C49BB696E
:1034C00013438B6006E02A4B9A68BB69DB432849AB
:1034D00013408B603B685B6803F40013002B06D03D
:1034E000234BDA682249BB691343CB6006E0204BCB
:1034F000DA68BB69DB431E491340CB603B685B68FD
:1035000003F40033002B06D0194B5A681849BB69E5
:1035100013434B6006E0164B5A68BB69DB43144902
:1035200013404B603B685B6803F48033002B21D071
:103530000F4B1A680E49BB6913430B6021E000BFB3
:103540000000321000003110000022100000211095
:103550000000121000001110001002400000014095
:1035600000080140000C014000100140001401401F
:10357000000401400B4B1A68BB69DB430949134047
:103580000B607B6A01337B623B681A687B6A22FAB4
:1035900003F3002B7FF48EAE00BF00BF2C37BD4677
:1035A00080BC70470004014080B489B000AF7860EF
:1035B00039600023FB619AE00122FB6902FA03F300
:1035C0003A681340BB61BB69002B00F08D804E4A06
:1035D000FB699B08023352F823307B61FB6903F0DF
:1035E00003039B000F2202FA03F37A6913407B6105
:1035F0007B68464A934213D07B68454A93420DD07C
:103600007B68444A934207D07B68434A934201D186
:10361000032306E0042304E0022302E0012300E088
:103620000023FA6902F00302920093407A699A42F9
:1036300032D13A4B1A68BB69DB43384913400B60FF
:10364000364B5A68BB69DB43344913404B60334BFC
:10365000DA68BB69DB4331491340CB602F4B9A6872
:10366000BB69DB432D4913408B60FB6903F0030307
:103670009B000F2202FA03F37B61234AFB699B083C
:10368000023352F823107B69DA431F48FB699B0819
:103690000A40023340F82320BB69FF2B01D87B6826
:1036A00001E07B6804333B61BB69FF2B02D8FB69F7
:1036B0009B0002E0FB69083B9B00FB603B691A68CA
:1036C0000F21FB6801FA03F3DB431A400421FB6876
:1036D00001FA03F31A433B691A607B68DA68BB6935
:1036E000DB431A407B68DA60FB690133FB613A68AF
:1036F000FB6922FA03F3002B7FF45EAF00BF00BF2B
:103700002437BD4680BC70470000014000080140DE
:10371000000C014000100140001401400004014071
:1037200080B485B000AF78600B467B807B689A6878
:103730007B881340002B02D00123FB7301E00023A0
:10374000FB73FB7B18461437BD4680BC704780B4C2
:1037500083B000AF78600B467B8013467B707B782C
:10376000002B03D07A887B681A6103E07B881A04F7
:103770007B681A6100BF0C37BD4680BC70470000F3
:1037800080B586B000AF78607B68002B01D1012343
:1037900072E27B681B6803F00103002B00F0878056
:1037A000924B5B6803F00C03042B0CD08F4B5B68CF
:1037B00003F00C03082B12D18C4B5B6803F48033AD
:1037C000B3F5803F0BD1894B1B6803F40033002B0A
:1037D0006CD07B685B68002B68D101234CE27B686E
:1037E0005B68B3F5803F06D1804B1B687F4A43F48A
:1037F000803313602EE07B685B68002B0CD17B4B21
:103800001B687A4A23F480331360784B1B68774A2D
:1038100023F4802313601DE07B685B68B3F5A02F61
:103820000CD1724B1B68714A43F4802313606F4BB9
:103830001B686E4A43F4803313600BE06B4B1B68CC
:103840006A4A23F480331360684B1B68674A23F489
:10385000802313607B685B68002B13D0FEF75EFD4E
:10386000386108E0FEF75AFD02463B69D31A642B23
:1038700001D9032300E25D4B1B6803F40033002BE6
:10388000F0D014E0FEF74AFD386108E0FEF746FD8F
:1038900002463B69D31A642B01D90323ECE1534B55
:1038A0001B6803F40033002BF0D100E000BF7B68FD
:1038B0001B6803F00203002B63D04C4B5B6803F0E2
:1038C0000C03002B0BD0494B5B6803F00C03082B57
:1038D0001CD1464B5B6803F48033002B16D1434B5D
:1038E0001B6803F00203002B05D07B681B69012BCA
:1038F00001D00123C0E13D4B1B6823F0F8027B6837
:103900005B69DB00394913430B603AE07B681B6954
:10391000002B20D0364B01221A60FEF7FFFC3861E5
:1039200008E0FEF7FBFC02463B69D31A022B01D9E3
:103930000323A1E12D4B1B6803F00203002BF0D001
:103940002A4B1B6823F0F8027B685B69DB00274980
:1039500013430B6015E0264B00221A60FEF7DEFCD5
:10396000386108E0FEF7DAFC02463B69D31A022B05
:1039700001D9032380E11D4B1B6803F00203002BD8
:10398000F0D17B681B6803F00803002B3AD07B68FA
:103990009B69002B19D0174B01221A60FEF7BEFC61
:1039A000386108E0FEF7BAFC02463B69D31A022BE5
:1039B00001D9032360E10D4B5B6A03F00203002B86
:1039C000F0D0012000F0CEFA1CE00A4B00221A6071
:1039D000FEF7A4FC38610FE0FEF7A0FC02463B694D
:1039E000D31A022B08D9032346E100BF001002407E
:1039F0000000424280044242924B5B6A03F00203A1
:103A0000002BE9D17B681B6803F00403002B00F056
:103A1000A6800023FB758B4BDB6903F08053002BE2
:103A20000DD1884BDB69874A43F08053D361854BC6
:103A3000DB6903F08053BB60BB680123FB75824BDD
:103A40001B6803F48073002B18D17F4B1B687E4AE0
:103A500043F480731360FEF761FC386108E0FEF701
:103A60005DFC02463B69D31A642B01D9032303E1B1
:103A7000754B1B6803F48073002BF0D07B68DB6808
:103A8000012B06D16F4B1B6A6E4A43F00103136290
:103A90002DE07B68DB68002B0CD16A4B1B6A694AFE
:103AA00023F001031362674B1B6A664A23F0040389
:103AB00013621CE07B68DB68052B0CD1614B1B6A31
:103AC000604A43F0040313625E4B1B6A5D4A43F095
:103AD000010313620BE05B4B1B6A5A4A23F001039C
:103AE0001362584B1B6A574A23F0040313627B6826
:103AF000DB68002B15D0FEF711FC38610AE0FEF7F9
:103B00000DFC02463B69D31A41F28832934201D937
:103B10000323B1E04B4B1B6A03F00203002BEED0F2
:103B200014E0FEF7FBFB38610AE0FEF7F7FB024604
:103B30003B69D31A41F28832934201D903239BE0B7
:103B4000404B1B6A03F00203002BEED1FB7D012BDF
:103B500005D13C4BDB693B4A23F08053D3617B6842
:103B6000DB69002B00F08780364B5B6803F00C03A9
:103B7000082B61D07B68DB69022B46D1334B0022D6
:103B80001A60FEF7CBFB386108E0FEF7C7FB024680
:103B90003B69D31A022B01D903236DE0294B1B6823
:103BA00003F00073002BF0D17B681B6AB3F5803FF4
:103BB00008D1244B5B6823F400327B689B68214961
:103BC00013434B601F4B5B6823F474127B68196AC4
:103BD0007B685B6A0B431B4913434B601B4B012201
:103BE0001A60FEF79BFB386108E0FEF797FB024680
:103BF0003B69D31A022B01D903233DE0114B1B680B
:103C000003F00073002BF0D035E0104B00221A6057
:103C1000FEF784FB386108E0FEF780FB02463B6953
:103C2000D31A022B01D9032326E0064B1B6803F0AD
:103C30000073002BF0D11EE07B68DB69012B07D1FC
:103C4000012319E000100240007000406000424271
:103C50000B4B5B68FB60FB6803F480327B681B6A7C
:103C60009A4206D1FB6803F470127B685B6A9A4241
:103C700001D0012300E0002318461837BD4680BD5F
:103C80000010024080B584B000AF786039607B6876
:103C9000002B01D10123D0E06A4B1B6803F007031E
:103CA0003A689A4210D9674B1B6823F007026549AE
:103CB0003B6813430B60634B1B6803F007033A68D0
:103CC0009A4201D00123B8E07B681B6803F002032D
:103CD000002B20D07B681B6803F00403002B05D069
:103CE000594B5B68584A43F4E06353607B681B6838
:103CF00003F00803002B05D0534B5B68524A43F492
:103D000060535360504B5B6823F0F0027B689B6804
:103D10004D4913434B607B681B6803F00103002B84
:103D200040D07B685B68012B07D1474B1B6803F4CD
:103D30000033002B15D101237FE07B685B68022BE9
:103D400007D1414B1B6803F00073002B09D10123FD
:103D500073E03D4B1B6803F00203002B01D10123EC
:103D60006BE0394B5B6823F003027B685B68364984
:103D700013434B60FEF7D2FAF8600AE0FEF7CEFA82
:103D80000246FB68D31A41F28832934201D90323D9
:103D900053E02D4B5B6803F00C027B685B689B0073
:103DA0009A42EBD1274B1B6803F007033A689A420B
:103DB00010D2244B1B6823F0070222493B681343AF
:103DC0000B60204B1B6803F007033A689A4201D04E
:103DD000012332E07B681B6803F00403002B08D04A
:103DE000194B5B6823F4E0627B68DB681649134378
:103DF0004B607B681B6803F00803002B09D0124B53
:103E00005B6823F460527B681B69DB000E49134337
:103E10004B6000F021F802460B4B5B681B0903F076
:103E20000F030A49CB5C22FA03F3094A1360094BDA
:103E30001B681846FEF730FA002318461037BD46B7
:103E400080BD00BF00200240001002409094000896
:103E5000040000200800002080B487B000AF0023D9
:103E6000FB600023BB6000237B6100237B60002399
:103E70003B611E4B5B68FB60FB6803F00C03042B8B
:103E800002D0082B03D027E0194B3B6127E0FB68E9
:103E90009B0C03F00F03174AD35C7B60FB6803F4B1
:103EA0008033002B10D0114B5B685B0C03F00103D7
:103EB000114AD35CBB607B680D4A03FB02F2BB680E
:103EC000B2FBF3F37B6104E07B680C4A02FB03F373
:103ED0007B617B693B6102E0054B3B6100BF3B6955
:103EE00018461C37BD4680BC704700BF001002401A
:103EF00000127A00A8940008B894000800093D0058
:103F000080B400AF024B1B681846BD4680BC7047AA
:103F10000400002080B500AFFFF7F2FF0246054B1A
:103F20005B681B0A03F007030349CB5C22FA03F327
:103F3000184680BD00100240A094000880B500AF74
:103F4000FFF7DEFF0246054B5B68DB0A03F0070361
:103F50000349CB5C22FA03F3184680BD00100240EF
:103F6000A094000880B485B000AF78600A4B1B684D
:103F70000A4AA2FB03235B0A7A6802FB03F3FB6095
:103F800000BFFB685A1EFA60002BF9D100BF00BFCA
:103F90001437BD4680BC704704000020D34D62102A
:103FA00080B586B000AF786000233B610023FB60E2
:103FB0007B681B6803F00103002B7DD00023FB7599
:103FC0004F4BDB6903F08053002B0DD14C4BDB6969
:103FD0004B4A43F08053D361494BDB6903F0805374
:103FE000BB60BB680123FB75464B1B6803F4807301
:103FF000002B18D1434B1B68424A43F48073136073
:10400000FEF78CF9386108E0FEF788F902463B6953
:10401000D31A642B01D903236DE03A4B1B6803F4D8
:104020008073002BF0D0364B1B6A03F44073FB60A7
:10403000FB68002B2ED07B685B6803F44073FA6842
:104040009A4227D02E4B1B6A23F44073FB602E4B01
:1040500001221A602C4B00221A60294AFB68136265
:10406000FB6803F00103002B14D0FEF757F9386109
:104070000AE0FEF753F902463B69D31A41F288324F
:10408000934201D9032336E01D4B1B6A03F0020360
:10409000002BEED01A4B1B6A23F440727B685B68DE
:1040A000174913430B62FB7D012B05D1144BDB69D0
:1040B000134A23F08053D3617B681B6803F002032B
:1040C000002B08D00E4B5B6823F440427B689B6852
:1040D0000B4913434B607B681B6803F01003002BF4
:1040E00008D0074B5B6823F480027B68DB680449D7
:1040F00013434B60002318461837BD4680BD00BFF0
:1041000000100240007000404004424280B582B07E
:1041100000AF78607B68002B01D1012341E07B6810
:1041200093F83D30DBB2002B06D17B68002283F888
:104130003C207868FDF78CFF7B68022283F83D20E5
:104140007B681A687B6804331946104600F012FA3F
:104150007B68012283F846207B68012283F83E2099
:104160007B68012283F83F207B68012283F840208E
:104170007B68012283F841207B68012283F842207A
:104180007B68012283F843207B68012283F8442066
:104190007B68012283F845207B68012283F83D205B
:1041A000002318460837BD4680BD80B584B000AFF7
:1041B00078607B681B68DB68FB607B681B681B6939
:1041C000BB60BB6803F00203002B20D0FB6803F048
:1041D0000203002B1BD07B681B686FF002021A6180
:1041E0007B6801221A777B681B689B6903F00303D5
:1041F000002B03D0786800F0A1F905E0786800F0A2
:1042000094F9786800F0A3F97B6800221A77BB68FC
:1042100003F00403002B20D0FB6803F00403002B01
:104220001BD07B681B686FF004021A617B68022256
:104230001A777B681B689B6903F44073002B03D0DB
:10424000786800F07BF905E0786800F06EF978682E
:1042500000F07DF97B6800221A77BB6803F0080341
:10426000002B20D0FB6803F00803002B1BD07B68D9
:104270001B686FF008021A617B6804221A777B685A
:104280001B68DB6903F00303002B03D0786800F0A0
:1042900055F905E0786800F048F9786800F057F9BA
:1042A0007B6800221A77BB6803F01003002B20D034
:1042B000FB6803F01003002B1BD07B681B686FF0BA
:1042C00010021A617B6808221A777B681B68DB6919
:1042D00003F44073002B03D0786800F02FF905E059
:1042E000786800F022F9786800F031F97B680022E4
:1042F0001A77BB6803F00103002B0CD0FB6803F0B6
:104300000103002B07D07B681B686FF001021A6164
:10431000786800F001F9BB6803F08003002B0CD033
:10432000FB6803F08003002B07D07B681B686FF0ED
:1043300080021A61786800F088FABB6803F04003D5
:10434000002B0CD0FB6803F04003002B07D07B68E8
:104350001B686FF040021A61786800F001F9BB68D1
:1043600003F02003002B0CD0FB6803F02003002B8C
:1043700007D07B681B686FF020021A61786800F034
:104380005BFA00BF1037BD4680BD80B584B000AF7A
:10439000786039600023FB737B6893F83C30012B15
:1043A00001D10223B4E07B68012283F83C207B68C2
:1043B000022283F83D207B681B689B68BB60BB685A
:1043C00023F07703BB60BB6823F47F43BB607B684B
:1043D0001B68BA689A603B681B68B3F5005F3ED003
:1043E000B3F5005F00F28780B3F5805F00F0868050
:1043F000B3F5805F7FD8702B1AD0702B7BD8602BE1
:1044000050D0602B77D8502B3CD0502B73D8402BFA
:1044100058D0402B6FD8302B64D0302B6BD8202B4A
:1044200060D0202B67D8002B5CD0102B5AD062E0D4
:104430007B6818683B6899683B685A683B68DB682A
:1044400000F07DF97B681B689B68BB60BB6843F02C
:104450007703BB607B681B68BA689A604FE07B6833
:1044600018683B6899683B685A683B68DB6800F0ED
:1044700066F97B681B689A687B681B6842F4804217
:104480009A603CE07B6818683B6859683B68DB6869
:104490001A4600F0DDF87B681B685021184600F0D2
:1044A00034F92CE07B6818683B6859683B68DB6826
:1044B0001A4600F0FBF87B681B686021184600F084
:1044C00024F91CE07B6818683B6859683B68DB6826
:1044D0001A4600F0BDF87B681B684021184600F0C2
:1044E00014F90CE07B681A683B681B681946104693
:1044F00000F00BF903E00123FB7300E000BF7B68D1
:10450000012283F83D207B68002283F83C20FB7B5E
:1045100018461037BD4680BD80B483B000AF7860C8
:1045200000BF0C37BD4680BC704780B483B000AF7D
:10453000786000BF0C37BD4680BC704780B483B044
:1045400000AF786000BF0C37BD4680BC704780B4B8
:1045500083B000AF786000BF0C37BD4680BC7047A9
:1045600080B483B000AF786000BF0C37BD4680BC1C
:104570007047000080B485B000AF786039607B6818
:104580001B68FB607B682F4A93420BD07B68B3F1BA
:10459000804F07D07B682C4A934203D07B682B4A1C
:1045A000934208D1FB6823F07003FB603B685B68B3
:1045B000FA681343FB607B68224A93420BD07B6806
:1045C000B3F1804F07D07B681F4A934203D07B68CA
:1045D0001E4A934208D1FB6823F44073FB603B689A
:1045E000DB68FA681343FB60FB6823F080023B68DA
:1045F0005B691343FB607B68FA681A603B689A68E2
:104600007B68DA623B681A687B689A627B680D4A4D
:10461000934203D13B681A697B681A637B68012265
:104620005A617B681B6903F00103002B05D07B688E
:104630001B6923F001027B681A6100BF1437BD4675
:1046400080BC7047002C014000040040000800407E
:1046500080B487B000AFF860B9607A60FB681B6A0D
:104660007B61FB681B6A23F00102FB681A62FB682E
:104670009B693B613B6923F0F0033B617B681B0155
:104680003A6913433B617B6923F00A037B617A69D2
:10469000BB6813437B61FB683A699A61FB687A697E
:1046A0001A6200BF1C37BD4680BC704780B487B01B
:1046B00000AFF860B9607A60FB681B6A7B61FB68D9
:1046C0001B6A23F01002FB681A62FB689B693B615E
:1046D0003B6923F470433B617B681B033A691343D6
:1046E0003B617B6923F0A0037B61BB681B017A6996
:1046F00013437B61FB683A699A61FB687A691A62C5
:1047000000BF1C37BD4680BC704780B485B000AF89
:10471000786039607B689B68FB60FB6823F07003FE
:10472000FB603A68FB68134343F00703FB607B6858
:10473000FA689A6000BF1437BD4680BC704780B4E9
:1047400087B000AFF860B9607A603B60FB689B6837
:104750007B617B6923F47F437B613B681A027B6842
:104760001A43BB6813437A6913437B61FB687A6918
:104770009A6000BF1C37BD4680BC704780B485B0CE
:1047800000AF786039607B6893F83C30012B01D131
:10479000022346E07B68012283F83C207B680222EA
:1047A00083F83D207B681B685B68FB607B681B6847
:1047B0009B68BB60FB6823F07003FB603B681B6871
:1047C000FA681343FB607B681B68FA685A607B6871
:1047D0001B68164A93420ED07B681B68B3F1804F6A
:1047E00009D07B681B68124A934204D07B681B681F
:1047F000104A93420CD1BB6823F08003BB603B6836
:104800005B68BA681343BB607B681B68BA689A60D0
:104810007B68012283F83D207B68002283F83C20DE
:10482000002318461437BD4680BC7047002C014059
:10483000000400400008004080B483B000AF7860FE
:1048400000BF0C37BD4680BC704780B483B000AF5A
:10485000786000BF0C37BD4680BC704780B582B021
:1048600000AF78607B68002B01D1012342E07B68B8
:1048700093F84130DBB2002B06D17B68002283F82D
:1048800040207868FDF708FC7B68242283F84120EB
:104890007B681B68DA687B681B6822F40052DA6068
:1048A000786800F0CDFE7B681B681A697B681B681E
:1048B00022F490421A617B681B685A697B681B6806
:1048C00022F02A025A617B681B68DA687B681B68E1
:1048D00042F40052DA607B6800225A647B6820222E
:1048E00083F841207B68202283F842207B680022E5
:1048F0005A63002318460837BD4680BD80B582B094
:1049000000AF78607B68002B01D1012324E07B6835
:10491000242283F841207B681B68DA687B681B6867
:1049200022F40052DA607868FDF708FC7B68002208
:104930005A647B68002283F841207B68002283F858
:1049400042207B6800221A637B6800225A637B68DE
:10495000002283F84020002318460837BD4680BD5A
:1049600080B58AB002AFF860B9603B601346FB8047
:1049700000237B61FB6893F84130DBB2202B75D1BB
:10498000BB68002B02D0FB88002B01D101236EE015
:10499000FB6800225A64FB68212283F84120FDF75E
:1049A000BDFC7861FB68FA889A84FB68FA88DA842F
:1049B000FB689B68B3F5805F08D1FB681B69002B1F
:1049C00004D10023FB61BB68BB6103E0BB68FB61F2
:1049D0000023BB612EE03B6800937B6900228021AD
:1049E000F86800F0FFFB0346002B05D0FB6820228F
:1049F00083F8412003233AE0FB69002B0BD1BB690C
:104A00001B881A46FB681B68C2F308025A60BB6920
:104A10000233BB6107E0FB691A78FB681B685A60C8
:104A2000FB690133FB61FB68DB8C9BB2013B9AB2F3
:104A3000FB68DA84FB68DB8C9BB2002BCBD13B6834
:104A400000937B6900224021F86800F0CBFB03460D
:104A5000002B05D0FB68202283F84120032306E0C9
:104A6000FB68202283F84120002300E0022318463F
:104A70002037BD4680BD80B584B000AFF860B96016
:104A80001346FB80FB6893F84230DBB2202B12D137
:104A9000BB68002B02D0FB88002B01D101230BE067
:104AA000FB6800221A63FB881A46B968F86800F0B0
:104AB000F2FB034600E0022318461037BD4680BDD6
:104AC00080B5A0B000AF78607B681B680C33FB65D5
:104AD000FB6D53E8003FBB65BB6D23F4F073FB67D0
:104AE0007B681B680C33FA6FBA667B66796EBA6EA8
:104AF00041E800233B663B6E002BE5D17B681B68D9
:104B00001433BB64BB6C53E8003F7B647B6C23F0C5
:104B10000103BB677B681B681433BA6F7A653B651A
:104B2000396D7A6D41E80023FB64FB6C002BE5D105
:104B30007B681B6B012B19D17B681B680C337B6373
:104B40007B6B53E8003F3B633B6B23F010037B67B9
:104B50007B681B680C337A6F3A64FB63F96B3A6CC1
:104B600041E80023BB63BB6B002BE5D17B681B686E
:104B70005B6903F08003002B36D07B681B6814331D
:104B80003B623B6A53E8003FFB61FB6923F0800313
:104B90003B677B681B6814333A6FFA62BB62B96A81
:104BA000FA6A41E800237B627B6A002BE5D17B68CF
:104BB0009B6B002B18D07B689B6B00225A637B6831
:104BC0009B6B1846FEF77AF90346002B0CD07B68E6
:104BD0009B6B1846FEF72CFB0346202B04D17B6809
:104BE00010225A64032352E07B681B685B6903F060
:104BF0004003002B36D07B681B681433FB60FB68D6
:104C000053E8003FBB60BB6823F04003FB667B6852
:104C10001B681433FA6EBA617B617969BA6941E83D
:104C200000233B613B69002BE5D17B68DB6B002BEC
:104C300018D07B68DB6B00225A637B68DB6B1846FD
:104C4000FEF73CF90346002B0CD07B68DB6B184663
:104C5000FEF7EEFA0346202B04D17B6810225A643B
:104C6000032314E07B680022DA847B680022DA8563
:104C70007B6800225A647B68202283F842207B688C
:104C8000202283F841207B6800221A630023184603
:104C90008037BD4680BD000080B5BAB000AF7860F7
:104CA0007B681B681B68C7F8E4307B681B68DB689F
:104CB000C7F8E0307B681B685B69C7F8DC3000230D
:104CC000C7F8D8300023C7F8D430D7F8E43003F061
:104CD0000F03C7F8D830D7F8D830002B0FD1D7F84A
:104CE000E43003F02003002B09D0D7F8E03003F0C4
:104CF0002003002B03D0786800F0E3FB5BE2D7F8D9
:104D0000D830002B00F0DE80D7F8DC3003F0010350
:104D1000002B06D1D7F8E03003F49073002B00F09D
:104D2000D180D7F8E43003F00103002B0BD0D7F883
:104D3000E03003F48073002B05D07B685B6C43F09C
:104D400001027B685A64D7F8E43003F00403002BB7
:104D50000BD0D7F8DC3003F00103002B05D07B68C3
:104D60005B6C43F002027B685A64D7F8E43003F0CE
:104D70000203002B0BD0D7F8DC3003F00103002B2B
:104D800005D07B685B6C43F004027B685A64D7F8FB
:104D9000E43003F00803002B11D0D7F8E03003F023
:104DA0002003002B05D1D7F8DC3003F00103002BE2
:104DB00005D07B685B6C43F008027B685A647B68B3
:104DC0005B6C002B00F0F281D7F8E43003F0200395
:104DD000002B08D0D7F8E03003F02003002B02D0DE
:104DE000786800F06EFB7B681B685B6903F040032A
:104DF000002B14BF01230023DBB2C7F8D4307B683B
:104E00005B6C03F00803002B03D1D7F8D430002BE0
:104E10004FD0786800F078FA7B681B685B6903F014
:104E20004003002B41D07B681B681433C7F89C30CB
:104E3000D7F89C3053E8003FC7F89830D7F898303F
:104E400023F04003C7F8D0307B681B681433D7F8D1
:104E5000D020C7F8A820C7F8A430D7F8A410D7F8F6
:104E6000A82041E80023C7F8A030D7F8A030002BD5
:104E7000D9D17B68DB6B002B13D07B68DB6B7E4A60
:104E80005A637B68DB6B1846FEF754F80346002B29
:104E900016D07B68DB6B5B6B7A68D26B10469847E9
:104EA0000EE07868FCF71EFA0AE07868FCF71AFA58
:104EB00006E07868FCF716FA7B6800225A6475E110
:104EC00000BF73E17B681B6B012B40F04F81D7F86B
:104ED000E43003F01003002B00F04881D7F8E030F5
:104EE00003F01003002B00F041810023BB607B68BE
:104EF0001B681B68BB607B681B685B68BB60BB682A
:104F00007B681B685B6903F04003002B00F0B680F0
:104F10007B68DB6B1B685B68A7F8BE30B7F8BE30F8
:104F2000002B00F045817B689B8DB7F8BE209A422C
:104F300080F03E817B68B7F8BE20DA857B68DB6B4A
:104F40009B69202B00F088807B681B680C33C7F8B6
:104F50008830D7F8883053E8003FC7F88430D7F856
:104F6000843023F48073C7F8B8307B681B680C3337
:104F7000D7F8B820C7F89420C7F89030D7F8901029
:104F8000D7F8942041E80023C7F88C30D7F88C304C
:104F9000002BD9D17B681B6814337B677B6F53E888
:104FA000003F3B673B6F23F00103C7F8B4307B68D9
:104FB0001B681433D7F8B420C7F88020FB67F96F5B
:104FC000D7F8802041E80023BB67BB6F002BE1D1FD
:104FD0007B681B6814333B663B6E53E8003FFB6500
:104FE000FB6D23F04003C7F8B0307B681B681433B7
:104FF000D7F8B020FA66BB66B96EFA6E41E80023B6
:105000007B667B6E002BE3D17B68202283F84220F5
:105010007B6800221A637B681B680C33FB64FB6CA3
:1050200053E8003FBB64BB6C23F01003C7F8AC30FF
:105030007B681B680C33D7F8AC20BA657B65796D4B
:10504000BA6D41E800233B653B6D002BE3D17B68E3
:10505000DB6B1846FDF732FF7B6802225A637B68E0
:105060009A8D7B68DB8D9BB2D31A9BB21946786808
:1050700000F0ADF89CE000BFCD5300087B689A8D2E
:105080007B68DB8D9BB2D31AA7F8CE307B68DB8DB3
:105090009BB2002B00F08E80B7F8CE30002B00F0D2
:1050A00089807B681B680C33BB63BB6B53E8003F94
:1050B0007B637B6B23F49073C7F8C8307B681B68F5
:1050C0000C33D7F8C8207A643B64396C7A6C41E8B9
:1050D0000023FB63FB6B002BE3D17B681B6814335D
:1050E0007B627B6A53E8003F3B623B6A23F001032B
:1050F000C7F8C4307B681B681433D7F8C4203A6300
:10510000FB62F96A3A6B41E80023BB62BB6A002B81
:10511000E3D17B68202283F842207B6800221A6357
:105120007B681B680C333B613B6953E8003FFB60C5
:10513000FB6823F01003C7F8C0307B681B680C3392
:10514000D7F8C020FA61BB61B969FA6941E8002368
:105150007B617B69002BE3D17B6802225A63B7F83D
:10516000CE301946786800F032F823E0D7F8E43002
:1051700003F08003002B09D0D7F8E03003F0800360
:10518000002B03D0786800F035F914E0D7F8E4304C
:1051900003F04003002B0ED0D7F8E03003F04003BB
:1051A000002B08D0786800F074F904E000BF02E03A
:1051B00000BF00E000BFE837BD4680BD80B483B0CB
:1051C00000AF786000BF0C37BD4680BC704780B42C
:1051D00083B000AF78600B467B8000BF0C37BD46C4
:1051E00080BC704780B586B000AFF860B9603B60A6
:1051F0001346FB713BE03B6AB3F1FF3F37D0FDF74D
:105200008DF802463B68D31A3A6A9A4202D33B6A47
:10521000002B01D103233AE0FB681B68DB6803F035
:105220000403002B23D0BB68802B20D0BB68402B0D
:105230001DD0FB681B681B6803F00803082B16D100
:1052400000237B61FB681B681B687B61FB681B6834
:105250005B687B617B69F86800F056F8FB680822A0
:105260005A64FB68002283F8402001230FE0FB68AA
:105270001B681A68BB681340BA689A420CBF0123C6
:105280000023DBB21A46FB799A42B4D000231846B9
:105290001837BD4680BD80B485B000AFF860B960F6
:1052A0001346FB80FB68BA689A62FB68FA889A85A5
:1052B000FB68FA88DA85FB6800225A64FB682222C0
:1052C00083F84220FB681B69002B07D0FB681B6832
:1052D000DA68FB681B6842F48072DA60FB681B685E
:1052E0005A69FB681B6842F001025A61FB681B683F
:1052F000DA68FB681B6842F02002DA600023184677
:105300001437BD4680BC704780B495B000AF78605C
:105310007B681B680C337B637B6B53E8003F3B630C
:105320003B6B23F49073FB647B681B680C33FA6C53
:105330003A64FB63F96B3A6C41E80023BB63BB6BD7
:10534000002BE5D17B681B6814333B623B6A53E852
:10535000003FFB61FB6923F00103BB647B681B68B2
:105360001433BA6CFA62BB62B96AFA6A41E8002384
:105370007B627B6A002BE5D17B681B6B012B19D10B
:105380007B681B680C33FB60FB6853E8003FBB6025
:10539000BB6823F010037B647B681B680C337A6C5A
:1053A000BA617B617969BA6941E800233B613B6975
:1053B000002BE5D17B68202283F842207B68002205
:1053C0001A6300BF5437BD4680BC704780B584B0B7
:1053D00000AF78607B685B6AFB60FB680022DA855F
:1053E000FB680022DA84F868FBF77CFF00BF103707
:1053F000BD4680BD80B485B000AF78607B6893F80F
:105400004130DBB2212B3ED17B689B68B3F5805FD6
:1054100014D17B681B69002B10D17B681B6AFB6071
:10542000FB681B881A467B681B68C2F308025A6037
:105430007B681B6A9A1C7B681A6208E07B681B6A9F
:10544000591C7A6811621A787B681B685A607B68FD
:10545000DB8C9BB2013B9BB27A681946D184002B4E
:105460000FD17B681B68DA687B681B6822F08002BA
:10547000DA607B681B68DA687B681B6842F0400270
:10548000DA60002300E0022318461437BD4680BCD2
:10549000704780B582B000AF78607B681B68DA68BF
:1054A0007B681B6822F04002DA607B68202283F868
:1054B00041207868FFF782FE002318460837BD4672
:1054C00080BD80B58CB000AF78607B6893F84230C7
:1054D000DBB2222B40F0AE807B689B68B3F5805F27
:1054E00017D17B681B69002B13D10023FB627B68FB
:1054F0009B6ABB627B681B685B689BB2C3F3080353
:105500009AB2BB6A1A807B689B6A9A1C7B689A6213
:1055100026E07B689B6AFB620023BB627B689B681A
:10552000B3F5805F07D07B689B68002B0AD17B684E
:105530001B69002B06D17B681B685B68DAB2FB6ACB
:105540001A7008E07B681B685B68DBB203F07F03BE
:10555000DAB2FB6A1A707B689B6A5A1C7B689A6293
:105560007B68DB8D9BB2013B9BB27A681946D18583
:10557000002B5DD17B681B68DA687B681B6822F0B2
:105580002002DA607B681B68DA687B681B6822F49B
:105590008072DA607B681B685A697B681B6822F03E
:1055A00001025A617B68202283F842207B68002236
:1055B0005A637B681B6B012B35D17B6800221A6311
:1055C0007B681B680C337B617B6953E8003F3B6160
:1055D0003B6923F010037B627B681B680C337A6A9B
:1055E0003A62FB61F9693A6A41E80023BB61BB6931
:1055F000002BE5D17B681B681B6803F01003102BA0
:105600000AD10023FB607B681B681B68FB607B681A
:105610001B685B68FB60FB687B689B8D194678683C
:10562000FFF7D5FD02E07868FBF7ECFD002302E010
:10563000002300E0022318463037BD4680BD00003D
:1056400080B584B000AF78607B681B681B6923F469
:1056500040517B68DA687B681B680A431A617B6883
:105660009A687B681B691A437B685B691343BB605C
:105670007B681B68DB6823F4B05323F00C037A6863
:105680001268B9680B43D3607B681B685B6923F4BD
:1056900040717B689A697B681B680A435A617B6822
:1056A0001B682C4A934203D1FEF748FCF86002E0E5
:1056B000FEF730FCF860FA6813469B0013449A002A
:1056C0001A447B685B689B00B2FBF3F3224AA2FB9F
:1056D00003235B091901FA6813469B0013449A00DF
:1056E0001A447B685B689B00B2FBF3F21A4BA3FB86
:1056F00002035B09642000FB03F3D31A1B0132335E
:10570000154AA2FB03235B0903F0F0031944FA686E
:1057100013469B0013449A001A447B685B689B0005
:10572000B2FBF3F20C4BA3FB02035B09642000FB0A
:1057300003F3D31A1B013233074AA2FB03235B098D
:1057400003F00F027B681B680A449A6000BF1037A1
:10575000BD4680BD003801401F85EB5180B483B049
:1057600000AF03463960FB7197F90730002B0ADB65
:105770003B68DAB20C4997F907301201D2B20B44F8
:1057800083F800230AE03B68DAB20849FB7903F0AA
:105790000F03043B1201D2B20B441A7600BF0C3740
:1057A000BD4680BC704700BF00E100E000ED00E0B6
:1057B00080B500AF00216FF00400FFF7CFFF00BFFE
:1057C00080BD000080B483B000AFEFF305833B6081
:1057D0003B68002B03D06FF005037B600CE0094BA6
:1057E0001B68002B05D1074B01221A6000237B6048
:1057F00002E04FF0FF337B607B6818460C37BD46F4
:1058000080BC7047B006002080B582B000AFEFF3D7
:1058100005833B603B68002B03D06FF005037B6082
:1058200010E00B4B1B68012B09D1FFF7C1FF084BA0
:1058300002221A6001F09CFB00237B6002E04FF023
:10584000FF337B607B6818460837BD4680BD00BFCC
:10585000B006002080B58EB004AFF860B9607A6001
:1058600000233B61EFF305837B617B69002B7ED1D5
:10587000FB68002B7BD080233B621823FB61002355
:105880007B624FF0FF33BB617B68002B45D07B68A8
:105890001B68002B02D07B681B687B627B689B695E
:1058A000002B02D07B689B69FB61FB69002B08D051
:1058B000FB69382B05D87B685B6803F00103002B7C
:1058C00001D0002354E07B685B69002B03D07B6828
:1058D0005B699B083B627B689B68002B0ED07B68F2
:1058E000DB685B2B0AD97B681B69002B06D07B68C1
:1058F0005B69002B02D00123BB6110E07B689B68D1
:10590000002B0CD17B68DB68002B08D17B681B69FE
:10591000002B04D10023BB6101E00023BB61BB6904
:10592000012B10D17B681B697A68926802920193FF
:10593000FB690093BB683A6A796AF86801F03CF940
:1059400003463B6113E0BB69002B10D13B6A9AB25E
:1059500007F110030193FB690093BB68796AF8684B
:1059600001F08AF90346012B01D000233B613B691A
:1059700018462837BD4680BD80B584B000AF78603A
:10598000EFF30583BB60BB68002B03D06FF005030A
:10599000FB6007E00023FB607B68002B02D0786887
:1059A00001F0B0FAFB6818461037BD4680BD80B5DF
:1059B00088B000AF78600023FB61EFF30583BB6024
:1059C000BB68002B74D17B68002B03D07B685B68BD
:1059D000BB6101E00023BB61BB6903F00103002B45
:1059E00002D001237B6101E000237B61BB6903F0EE
:1059F0000803002B5CD14FF0FF333B617B68002B29
:105A000015D07B689B68002B06D07B68DB684F2B2A
:105A100002D901233B610CE07B689B68002B08D115
:105A20007B68DB68002B04D100233B6101E000238D
:105A30003B613B69012B12D17B69002B07D07B684E
:105A40009B681946042000F01AFBF86116E07B6899
:105A50009B681946012000F012FBF8610EE03B69DB
:105A6000002B0BD17B69002B04D0042000F0EFFA4F
:105A7000F86103E0012000F0EAFAF861FB69002B0D
:105A80000CD07B68002B03D07B681B68FB6001E0B7
:105A90000023FB60F968F86901F032F8FB69002B1C
:105AA00006D07B69002B03D0FB6943F00103FB6147
:105AB000FB6918462037BD4680BD80B586B000AF73
:105AC000786039607B6823F001033B617B6803F0F9
:105AD0000103FB6000237B61EFF30583BB60BB68C0
